:020000040800F2
:1000000000100020A50E0008A30E0008A10E000895
:1000100000000000000000000000000000000000E0
:10002000000000000000000000000000A30E000817
:100030000000000000000000A30E0008A30E00084E
:10004000A10E0008A10E0008A10E0008A10E0008D4
:10005000A10E0008A10E0008A10E0008A10E0008C4
:10006000A10E0008A10E0008A10E0008A10E0008B4
:10007000A10E0008A10E0008A10E00084D02000804
:10008000A10E0008A10E0008A10E0008A10E000894
:10009000A10E0008A10E0008A10E0008A10E000884
:1000A000A10E0008A10E0008A10E00081505000809
:1000B000A10E0008A10E0008A10E0008A10E000864
:1000C00010B5040000F0A2FAFF23184002382018EF
:1000D000037800220270692B04D0702B0ED0642BA1
:1000E00013D105E0200000F08BFA084B18800CE0DB
:1000F000200000F085FA064B186006E0054B1868F2
:1001000000F074FA044800F0F3F910BD5C0400201C
:1001100060040020580400200C11000870B5454B05
:1001200000229A5E44490B689B180B60434B1B6886
:10013000D31803D58033414A136007E07F2B02DCDC
:100140003E4A136002E0803B3C4A13603B4B1B6815
:10015000DA171F2420001040C0184011C1B2D20E7F
:100160009B1823409B1A2022D21AD2B2C0072DD549
:100170003348E03423409B00C45C9200855C012935
:1001800011D19026F605300000F062FC022130000B
:1001900000F060FC0821300000F05CFC1021300011
:1001A00000F056FC40E09026F6050121300000F0FA
:1001B00051FC0221300000F04BFC0821300000F01F
:1001C00047FC1021300000F045FC2DE01C48920057
:1001D000845CFF2213409B00C55C002912D190264D
:1001E000F6050131300000F033FC0221300000F050
:1001F00031FC0821300000F02BFC1021300000F011
:1002000029FC11E09026F6050121300000F022FCC7
:100210000221300000F01CFC0821300000F01AFC24
:100220001021300000F014FC064B1D60064B1C60D2
:1002300070BDC0465C040020580400204804002023
:1002400088100008340400403804004010B5022132
:100250008020C00500F084FC002817D08024E4052D
:100260000221200000F083FC200000F0F8FD82B2A3
:10027000074B1A80074B1B68D21892B2064B1A80A4
:100280000021200000F0D8FDFFF748FF10BDC04658
:1002900064040020600400206C040020F0B5574680
:1002A0004E464546E0B400F04DFB7C4800F0DAFDD8
:1002B0007B4800F0D7FD7B4800F0D4FD7A4800F081
:1002C000D1FD9025ED051F2300220121280000F01B
:1002D000C4FBD824E400230000220221280000F0FF
:1002E000BCFB22000121280000F0D4FB1B2000F001
:1002F0001FFE6E4C96210902200000F059FB0821D8
:10030000200000F063FB0021200000F075FB0021BD
:10031000200000F069FB0C21200000F075FB00219B
:10032000200000F077FB2268202313432360200085
:1003300000F078FB5E4A5F4B1A60E020800000F01E
:1003400091FD0F2000F0F4FD8024E405200000F072
:10035000D7FB002300220021200000F00BFC182115
:10036000200000F022FC200000F010FC200000F033
:1003700012FC5149200000F01AFC0021200000F07E
:100380001FFD0221200000F01BFD0421200000F0D1
:1003900017FD0621200000F013FD0021200000F0D1
:1003A00009FC0021200000F0EBFC0021200000F0FF
:1003B00021FC00220021200000F03CFCFA239B00DD
:1003C00099461A000021200000F036FD200000F0C0
:1003D000DDFB200000F0E4FB0221200000F0BCFB6C
:1003E000364A0021116080208000354B1860354B63
:1003F00019600120344B1860344F3B686824A246D2
:1004000023433B60324B1C6804431C60314C216029
:100410003C68A446D024E401A046644646463443E2
:100420003C601C68102727431F602B4F39602B4FFF
:100430003C68564626433E601C6880277F013C434B
:100440001C60274B1960116880230B4313601368ED
:1004500003431360234B18800421280000F0F8FAAE
:100460000121280000F0F4FA0821280000F0F0FA39
:100470000221280000F0EEFA1021280000F0EAFA2C
:10048000194B4A461A60194B1A68002AFDDD0023F1
:10049000C04601339342FBDBF7E7C046810300000F
:1004A00091020000920200000E030000003801409B
:1004B000C100000844040020FFFF000000040040C9
:1004C0002C0400402804004014040040180400409C
:1004D0002004004034040040380400401C04004064
:1004E000400400405C040020600400200000002064
:1004F00070B506000178002909D00024044D2800B9
:1005000000F09EFA0134E4B2315D0029F7D170BDEC
:100510000038014010B5184B1B689B061DD5174BC2
:100520001B689B0619D5144800F081FA144A11780B
:100530004B1CDBB21370134A50540021D1540D28C8
:1005400006D1114B1B681000984700220C4B1A7003
:10055000094A116880230B431360074B1B681B0675
:1005600008D5064B1B681B0604D5034A1368802177
:100570008B43136010BDC046003801401C38014059
:10058000400400208004002044040020F0B587B01F
:1005900005000F00002822D0002600E026000A21D6
:1005A000280000F06BFD303101AB9955741CE4B2AA
:1005B0000A21280000F0DCFC051EEFD1002C0ED033
:1005C000631E01AA944663443A00A11E8E1B664432
:1005D00019781170013B0132B342F9D102E03023A6
:1005E0003B70012400233B5507B0F0BD00B587B038
:1005F00001A9FFF7CBFF01A8FFF77AFF07B000BD05
:1006000010B50A22002100F0F1F810BD10B58307E3
:1006100027D00378002B26D00300032102E01A78AC
:10062000002A1CD001330B42F9D119680F4A104C33
:100630008A188A4322420FD1043319680B4A8A1858
:100640008A43224208D104331968084A8A188A4327
:100650002242F1D000E001331A78002AFBD1181AA7
:1006600010BD0300E1E70020FAE7C046FFFEFEFEF2
:1006700080808080F0B556464D4644465F46F0B4D3
:100680001E00594B87B004911D6805900B009046E1
:10069000082100E03B001C785F1C2A1952781142A7
:1006A000F8D12D2C00D17EE0002202922B2C00D11B
:1006B0007EE0002E04D0102E00D185E0019605E0EA
:1006C000302C00D177E00A230A260193029B5A427C
:1006D000534180221206D31A9946019B48469A46F6
:1006E000190000F0CBFC5346039148465146019354
:1006F00000F03EFC042281469246013A9346019A5C
:100700003B00002000274946944601960EE0019ADE
:10071000303CA2421BDD7A1C06D088422FD82BD059
:1007200062460127504320181C78013356462A1987
:1007300052781642EBD15E46324008D05726B14679
:10074000012A1FD04A46A41A019AA242E3DC7A1C6D
:100750001BD0029A002A00D040424246002A04D010
:10076000002F1ED1049B4246136007B03CBC90464C
:100770009946A246AB46F0BD039A9442D0DD0127CC
:100780007F42D1E736329146DCE702980599424232
:10079000504180221206101A22220A604246002A84
:1007A000E3D0013BDFE79F1C5C780123029380E7E5
:1007B0009F1C5C787DE720223B789343582B0AD01E
:1007C00008230826019381E7302C0AD120223B78A8
:1007D0009343582B05D110237C78019302371026C0
:1007E00074E71023019371E73404002010B504006E
:1007F0001300034A10680A002100FFF73BFF10BDF9
:100800003004002000B5002306281AD8012200F089
:10081000A5FB06080A0E141204000B4B04E00A4B59
:100820000CE00A4B0AE0094B1B685B0C08E0074B25
:100830001B685B0E04E0064B00E0064B1B685B0880
:100840001340180000BDC0463410024000100240A2
:10085000201002402410024010B504002000FFF7D1
:10086000D1FF0028FAD010BD00B506281CD800F032
:1008700075FB06080A15110F04000C4A04E00B4A28
:1008800009E00B4A07E00A4A80211368490209E09F
:10089000084A00E0084A1368012103E08021044A65
:1008A000490413680B43136000BDC0463410024076
:1008B000001002402010024024100240013800B510
:1008C00005281AD800F04AFB03080E191914032151
:1008D0000A4A13688B430FE00321084A13688B43CD
:1008E000023908E00321054A13688B43013902E00D
:1008F0000321024A13680B43136000BD0410024039
:10090000034A044B11680B40184310607047C046FF
:1009100004100240FFFFC3FF034A044B11680B4061
:10092000184310607047C04604100240FFF8FFFFF4
:10093000F021034A13688B43184310607047C04688
:100940000410024010B50120FFF78EFF0120FFF7D1
:1009500083FF0120FFF7B2FF0020FFF7E9FF00202F
:10096000FFF7DAFF012000F0C1F8A0208003FFF7B5
:10097000C7FF0A4A0A4B116803200B401360FFF7B8
:1009800073FF0320FFF768FF0320FFF797FF054B76
:10099000054A1360054A136010BDC04604100240AA
:1009A000FFFFFEFF006CDC023C0400203804002046
:1009B000054B10B50400186840004018490000F0CD
:1009C000D7FAE06010BDC0463C040020082903D1DE
:1009D0000268044B134003E0802203685201134372
:1009E00003607047FFEFFFFF4268024B134019435B
:1009F00041607047FFCFFFFF0268024B134019436D
:100A000001607047FFF9FFFF0C220368934319430D
:100A1000016070478268024B134019438160704740
:100A2000FFFCFFFF0122036813430360704724307B
:100A30000078C0B270478023C2691A42FCD0704768
:100A400070B504000D002834FFF7F5FF257070BD68
:100A500081617047090481617047F7B500250091F5
:100A60000468C1680193019E01232E411E420BD0F0
:100A700003266F00BE40F643344031401600009B11
:100A8000BE40BB4031431C430135102DEBD1046007
:100A9000C160F7BDF7B500250F27046A436A0192CC
:100AA000019E01222E41164206D03A00AE00B2400D
:100AB00094430A00B24014430135082DF0D10025BB
:100AC0000F272E00019A08363241160001221642E5
:100AD00006D03A00AE00B24093430A00B24013433E
:100AE0000135082DEDD104624362F7BD0721034AA9
:100AF00013688B43184310607047C04600200240C3
:100B00000F4B10B5984214D008D88023DB059842CB
:100B10000DD00C4B984212D10B480EE00B4B984273
:100B20000AD00B4B98420AD18C20FF3005E0802080
:100B300000E08120800000E0064800F0A1F910BD2F
:100B400000100040000400400102000000140040BA
:100B5000002C014005020000C3681943C1607047C2
:100B6000036919400800411E8841C0B27047C9435B
:100B70000161704730B50568034C1A432C4011439E
:100B80002143016030BDC0468FFCFFFF8022036817
:100B900093430360704708220368934303607047E0
:100BA0000122036813430360704781627047C1628A
:100BB0007047000000B50300062917D8080000F0B0
:100BC000CDF9041508150D15110080219A698A4385
:100BD00002E09969064A0A409A6107E08021DA69D1
:100BE0008A4302E0D969024A0A40DA6100BDC04680
:100BF000FF7FFFFF00B50300062917D8080000F0AB
:100C0000ADF9041508150D15110004219A698A43E0
:100C100002E09969064A0A409A6107E00421DA690C
:100C20008A4302E0D969024A0A40DA6100BDC0463F
:100C3000FFFBFFFF00B50300062900D99AE008007A
:100C400000F08CF904982A984F9872000320996953
:100C50008143996199699961702198698843986184
:100C6000072A00D986E010009A6900F077F9060497
:100C7000080A0C0E101210210A439A617AE0202112
:100C8000FAE73021F8E74021F6E75021F4E7602148
:100C9000F2E7114399616DE0986937490140996124
:100CA000996999619869354901409961072A61D824
:100CB00010009A6900F048F9E10407090C0E1012BF
:100CC00080214901D8E7802100E0C0218901D3E7D4
:100CD000802104E0A02102E0C02100E0E021C90160
:100CE000CAE70320D9698143D961D969D9617021E3
:100CF000D8698843D861072A3CD81000DA6900F027
:100D00002DF9380406080A0C0E10102130E02021BD
:100D10002EE030212CE040212AE0502128E0602103
:100D200026E01143D96125E0D86913490140D96112
:100D3000D969D961D86911490140D961072A19D8FF
:100D40001000DA6900F00AF9150407090C0E1012F8
:100D5000802149010CE0802100E0C021890107E0E9
:100D6000802104E0A02102E0C02100E0E021C901CF
:100D70000A43DA6100BDC046FFFCFFFFFF8FFFFFA3
:100D800000B50300062917D8080000F0E7F804159D
:100D900008150D15110008219A698A4302E0996926
:100DA000064A0A409A6107E00821DA698A4302E0AC
:100DB000D969024A0A40DA6100BDC046FFF7FFFF69
:100DC00000B50300062915D8080000F0C7F8041381
:100DD00007130B130E001A6A012101E010211A6A91
:100DE0008A4305E0196A0F4A01E0196A0E4A0A406F
:100DF0001A6216E00D4A934213D1032907D0052940
:100E00000AD001290DD10A4A0331136802E04021BA
:100E1000074A13688B4303E0054A064B11680B40F1
:100E2000136000BDFFFEFFFFFFEFFFFF002C01403E
:100E3000202C0140FFFBFFFF00B5030006290DD861
:100E4000080000F08BF8040B060B080B0A005A632D
:100E500004E09A6302E0DA6300E01A6400BD406ACD
:100E600070470000054A43099B181F2210401E3A94
:100E7000824019680A431A607047C0460010024059
:100E8000064A43099B181F2210401E3A82401968E7
:100E900011431960196891431960704700100240AE
:100EA000FEE770470022174D1748184913185419C8
:100EB0008B4203D2246804321C60F7E70021144AF5
:100EC000934202D219600433FAE78021114A890063
:100ED0001368114C0B431360104B9C4202D208CC98
:100EE0009847F9E70E4C0F4B9C4202D208CC98472A
:100EF000F9E7FFF7D3F90C4C0C4B9C4202D208CC1B
:100F00009847F9E71812000800000020400400206C
:100F1000B404002014ED00E01812000818120008B4
:100F200018120008181200081812000818120008F9
:100F30004309044A9B009B181F2210401E3A82401E
:100F40001A60704700E100E002B4714649084900A8
:100F5000095649008E4402BC7047C04602B471462F
:100F600049084900095C49008E4402BC7047C046EC
:100F7000002243088B4274D303098B425FD3030AD8
:100F80008B4244D3030B8B4228D3030C8B420DD3EB
:100F9000FF22090212BA030C8B4202D31212090279
:100FA00065D0030B8B4219D300E0090AC30B8B42B7
:100FB00001D3CB03C01A5241830B8B4201D38B0365
:100FC000C01A5241430B8B4201D34B03C01A52410A
:100FD000030B8B4201D30B03C01A5241C30A8B424D
:100FE00001D3CB02C01A5241830A8B4201D38B0238
:100FF000C01A5241430A8B4201D34B02C01A5241DC
:10100000030A8B4201D30B02C01A5241CDD2C3094D
:101010008B4201D3CB01C01A524183098B4201D3C9
:101020008B01C01A524143098B4201D34B01C01AB4
:10103000524103098B4201D30B01C01A5241C3082C
:101040008B4201D3CB00C01A524183088B4201D39B
:101050008B00C01A524143088B4201D34B00C01A87
:101060005241411A00D20146524110467047FFE7F3
:1010700001B5002000F006F802BDC0460029F7D0F7
:1010800076E770477047C046000000000D00000082
:101090001900000025000000320000003E000000A2
:1010A0004A00000056000000620000006D000000D1
:1010B00078000000830000008E000000980000000F
:1010C000A2000000AB000000B4000000BD00000062
:1010D000C5000000CD000000D4000000DB000000CF
:1010E000E1000000E7000000EC000000F00000005C
:1010F000F4000000F7000000FA000000FC0000000F
:10110000FD000000FE000000FF0000000D0A0000CE
:10111000430000000020202020202020202028281C
:1011200028282820202020202020202020202020A7
:1011300020202020208810101010101010101010E7
:101140001010101010040404040404040404041017
:1011500010101010101041414141414101010101A5
:10116000010101010101010101010101010101016F
:10117000101010101010424242424242020202027B
:10118000020202020202020202020202020202023F
:1011900010101010200000000000000000000000EF
:1011A000000000000000000000000000000000003F
:1011B000000000000000000000000000000000002F
:1011C000000000000000000000000000000000001F
:1011D000000000000000000000000000000000000F
:1011E00000000000000000000000000000000000FF
:1011F00000000000000000000000000000000000EF
:1012000000000000000000000000000000000000DE
:081210000000000000000000D6
:10121800320000000000000000000000F40200207E
:101228005C030020C4030020000000000000000050
:1012380000000000000000000000000000000000A6
:10124800000000000000000000000000101100086D
:101258000000000000000000000000000000000086
:101268000000000000000000000000000000000076
:101278000000000000000000000000000000000066
:101288000000000000000000000000000000000056
:101298000000000000000000000000000000000046
:1012A8000000000000000000000000000000000036
:1012B8000000000000000000000000000000000026
:1012C80001000000000000000E33CDAB34126DE6C3
:1012D800ECDE05000B00000000000000000000002C
:1012E80000000000000000000000000000000000F6
:1012F80000000000000000000000000000000000E6
:1013080000000000000000000000000000000000D5
:1013180000000000000000000000000000000000C5
:10164800080000201411000800127A0000127A0025
:0400000508000EA53C
:00000001FF
